{"abi":[{"type":"constructor","inputs":[],"stateMutability":"nonpayable"},{"type":"function","name":"addParty","inputs":[{"name":"_name","type":"string","internalType":"string"}],"outputs":[],"stateMutability":"nonpayable"},{"type":"function","name":"blockVoter","inputs":[{"name":"_voter","type":"address","internalType":"address"}],"outputs":[],"stateMutability":"nonpayable"},{"type":"function","name":"distributeTokens","inputs":[{"name":"_voterAddresses","type":"address[]","internalType":"address[]"}],"outputs":[],"stateMutability":"nonpayable"},{"type":"function","name":"electionCommission","inputs":[],"outputs":[{"name":"","type":"address","internalType":"address"}],"stateMutability":"view"},{"type":"function","name":"electionEnded","inputs":[],"outputs":[{"name":"","type":"bool","internalType":"bool"}],"stateMutability":"view"},{"type":"function","name":"endElection","inputs":[],"outputs":[],"stateMutability":"nonpayable"},{"type":"function","name":"getPartyVotes","inputs":[{"name":"_partyId","type":"uint256","internalType":"uint256"}],"outputs":[{"name":"","type":"uint256","internalType":"uint256"}],"stateMutability":"view"},{"type":"function","name":"getVoterStatus","inputs":[{"name":"_voter","type":"address","internalType":"address"}],"outputs":[{"name":"","type":"bool","internalType":"bool"},{"name":"","type":"bool","internalType":"bool"},{"name":"","type":"bool","internalType":"bool"},{"name":"","type":"uint256","internalType":"uint256"}],"stateMutability":"view"},{"type":"function","name":"mintTokens","inputs":[{"name":"_voter","type":"address","internalType":"address"}],"outputs":[],"stateMutability":"nonpayable"},{"type":"function","name":"parties","inputs":[{"name":"","type":"uint256","internalType":"uint256"}],"outputs":[{"name":"id","type":"uint256","internalType":"uint256"},{"name":"name","type":"string","internalType":"string"},{"name":"voteCount","type":"uint256","internalType":"uint256"},{"name":"exists","type":"bool","internalType":"bool"}],"stateMutability":"view"},{"type":"function","name":"registerVoter","inputs":[{"name":"_voter","type":"address","internalType":"address"}],"outputs":[],"stateMutability":"nonpayable"},{"type":"function","name":"removeParty","inputs":[{"name":"_partyId","type":"uint256","internalType":"uint256"}],"outputs":[],"stateMutability":"nonpayable"},{"type":"function","name":"resetElection","inputs":[],"outputs":[],"stateMutability":"nonpayable"},{"type":"function","name":"startElection","inputs":[],"outputs":[],"stateMutability":"nonpayable"},{"type":"function","name":"totalParties","inputs":[],"outputs":[{"name":"","type":"uint256","internalType":"uint256"}],"stateMutability":"view"},{"type":"function","name":"totalVoters","inputs":[],"outputs":[{"name":"","type":"uint256","internalType":"uint256"}],"stateMutability":"view"},{"type":"function","name":"totalVotes","inputs":[],"outputs":[{"name":"","type":"uint256","internalType":"uint256"}],"stateMutability":"view"},{"type":"function","name":"unblockVoter","inputs":[{"name":"_voter","type":"address","internalType":"address"}],"outputs":[],"stateMutability":"nonpayable"},{"type":"function","name":"vote","inputs":[{"name":"_voter","type":"address","internalType":"address"},{"name":"_partyId","type":"uint256","internalType":"uint256"}],"outputs":[],"stateMutability":"nonpayable"},{"type":"function","name":"voterAddresses","inputs":[{"name":"","type":"uint256","internalType":"uint256"}],"outputs":[{"name":"","type":"address","internalType":"address"}],"stateMutability":"view"},{"type":"function","name":"voters","inputs":[{"name":"","type":"address","internalType":"address"}],"outputs":[{"name":"isRegistered","type":"bool","internalType":"bool"},{"name":"isBlocked","type":"bool","internalType":"bool"},{"name":"hasVoted","type":"bool","internalType":"bool"},{"name":"allocatedTokens","type":"uint256","internalType":"uint256"}],"stateMutability":"view"},{"type":"event","name":"ElectionEnded","inputs":[{"name":"winningPartyId","type":"uint256","indexed":false,"internalType":"uint256"},{"name":"winningPartyName","type":"string","indexed":false,"internalType":"string"},{"name":"votes","type":"uint256","indexed":false,"internalType":"uint256"}],"anonymous":false},{"type":"event","name":"ElectionReset","inputs":[],"anonymous":false},{"type":"event","name":"ElectionStarted","inputs":[],"anonymous":false},{"type":"event","name":"PartyAdded","inputs":[{"name":"partyId","type":"uint256","indexed":false,"internalType":"uint256"},{"name":"name","type":"string","indexed":false,"internalType":"string"}],"anonymous":false},{"type":"event","name":"PartyRemoved","inputs":[{"name":"partyId","type":"uint256","indexed":false,"internalType":"uint256"}],"anonymous":false},{"type":"event","name":"TokensDistributed","inputs":[{"name":"voter","type":"address","indexed":false,"internalType":"address"},{"name":"amount","type":"uint256","indexed":false,"internalType":"uint256"}],"anonymous":false},{"type":"event","name":"TokensMinted","inputs":[{"name":"voter","type":"address","indexed":false,"internalType":"address"},{"name":"amount","type":"uint256","indexed":false,"internalType":"uint256"}],"anonymous":false},{"type":"event","name":"VoteCasted","inputs":[{"name":"voter","type":"address","indexed":false,"internalType":"address"},{"name":"partyId","type":"uint256","indexed":false,"internalType":"uint256"}],"anonymous":false},{"type":"event","name":"VoterBlocked","inputs":[{"name":"voter","type":"address","indexed":false,"internalType":"address"}],"anonymous":false},{"type":"event","name":"VoterRegistered","inputs":[{"name":"voter","type":"address","indexed":false,"internalType":"address"}],"anonymous":false},{"type":"event","name":"VoterUnblocked","inputs":[{"name":"voter","type":"address","indexed":false,"internalType":"address"}],"anonymous":false}],"bytecode":{"object":"0x6080604052348015600e575f5ffd5b505f80546001600160a01b0319163317905561179a8061002d5f395ff3fe608060405234801561000f575f5ffd5b5060043610610132575f3560e01c806362d73eb8116100b4578063a3ec138d11610079578063a3ec138d146102c9578063aab46b7f14610308578063bcfaa79d14610332578063c94ca9e314610345578063dd0e237314610362578063e8f3052314610375575f5ffd5b806362d73eb8146101e057806370651a18146101e857806378e3ef201461020b57806381bf809d146102a357806388951352146102b6575f5ffd5b8063451bf277116100fa578063451bf2771461019657806359f78468146101a95780635df3e271146101b15780635f5300ff146101c45780635f74bbde146101cd575f5ffd5b806301d3be05146101365780630d15fd77146101525780631c99d3411461015b5780632acf63041461017057806338db6dd314610183575b5f5ffd5b61013f60035481565b6040519081526020015b60405180910390f35b61013f60015481565b61016e610169366004611293565b61037d565b005b61013f61017e366004611293565b61045c565b61016e6101913660046112c5565b6104c8565b61016e6101a43660046112c5565b61065c565b61016e610711565b61016e6101bf36600461132a565b6108e3565b61013f60025481565b61016e6101db3660046113be565b6109c0565b61016e610c41565b6101fb6101f6366004611293565b610ca8565b6040516101499493929190611414565b61027b6102193660046112c5565b6001600160a01b03165f908152600760209081526040918290208251608081018452815460ff80821615158084526101008304821615159584018690526201000090920416151594820185905260019092015460609091018190529093919291565b6040805194151585529215156020850152901515918301919091526060820152608001610149565b61016e6102b13660046112c5565b610d5a565b61016e6102c4366004611444565b610e0b565b61027b6102d73660046112c5565b60076020525f90815260409020805460019091015460ff808316926101008104821692620100009091049091169084565b5f5461031a906001600160a01b031681565b6040516001600160a01b039091168152602001610149565b61016e6103403660046112c5565b610fb0565b6004546103529060ff1681565b6040519015158152602001610149565b61031a610370366004611293565b611081565b61016e6110a9565b5f546001600160a01b031633146103af5760405162461bcd60e51b81526004016103a6906114f3565b60405180910390fd5b5f8181526006602052604090206003015460ff166104075760405162461bcd60e51b81526020600482015260156024820152742830b93a3c903237b2b9903737ba1032bc34b9ba1760591b60448201526064016103a6565b5f8181526006602052604090819020600301805460ff19169055517f70133d305cc6b215f6509d4345cec7344fbc098568fc29cb75408700a1ab67aa906104519083815260200190565b60405180910390a150565b5f8181526006602052604081206003015460ff166104b35760405162461bcd60e51b815260206004820152601460248201527314185c9d1e48191bd95cc81b9bdd08195e1a5cdd60621b60448201526064016103a6565b505f9081526006602052604090206002015490565b5f546001600160a01b031633146104f15760405162461bcd60e51b81526004016103a6906114f3565b6001600160a01b0381165f9081526007602052604090205460ff161561054e5760405162461bcd60e51b8152602060048201526012602482015271105b1c9958591e481c9959da5cdd195c995960721b60448201526064016103a6565b6040805160808101825260018082525f6020808401828152848601838152606086018481526001600160a01b038916808652600790945296842095518654925191511515620100000262ff0000199215156101000261ff00199215159290921661ffff199094169390931717161784559351928201929092556005805491820181559091527f036b6384b5eca791c62761152d0c79bb0604c104a5fb6f4eb0703f3154bb3db00180546001600160a01b031916909117905561060f81610fb0565b60028054905f61061e83611557565b90915550506040516001600160a01b03821681527fb6be2187d059cc2a55fe29e0e503b566e1e0f8c8780096e185429350acffd3dd90602001610451565b5f546001600160a01b031633146106855760405162461bcd60e51b81526004016103a6906114f3565b6001600160a01b0381165f9081526007602052604090205460ff166106bc5760405162461bcd60e51b81526004016103a69061156f565b6001600160a01b0381165f81815260076020908152604091829020805461ff00191661010017905590519182527fb180895abd229c8750685f55f8f2ed783729c335bc39e942db522278808373279101610451565b5f546001600160a01b0316331461073a5760405162461bcd60e51b81526004016103a6906114f3565b60045460ff16156107865760405162461bcd60e51b8152602060048201526016602482015275115b1958dd1a5bdb88185b1c9958591e48195b99195960521b60448201526064016103a6565b6004805460ff1916600190811790915560408051602081019091525f8082529182905b60035481116108a2575f8181526006602052604090206003015460ff1680156107e157505f8181526006602052604090206002015482105b15610890575f8181526006602052604090206002810154815460019092018054929650909350906108119061159d565b80601f016020809104026020016040519081016040528092919081815260200182805461083d9061159d565b80156108885780601f1061085f57610100808354040283529160200191610888565b820191905f5260205f20905b81548152906001019060200180831161086b57829003601f168201915b505050505092505b8061089a81611557565b9150506107a9565b507f768f23cc1edb48955299fa848c47d3fdebf8c6c78b4136045ba193ebad23fb8d8383836040516108d6939291906115d5565b60405180910390a1505050565b5f546001600160a01b0316331461090c5760405162461bcd60e51b81526004016103a6906114f3565b60038054905f61091b83611557565b90915550506040805160808101825260035480825260208083018581525f84860181905260016060860181905293815260069092529390208251815592519192919082019061096a9082611649565b5060408281015160028301556060909201516003918201805460ff19169115159190911790555490517f54e9cb5ebe49e5aa1476cef7c5abac9af1cffc245b2a6403e531976361e3d59a91610451918490611704565b5f8181526006602052604090206003015460ff16610a105760405162461bcd60e51b815260206004820152600d60248201526c496e76616c696420706172747960981b60448201526064016103a6565b6001600160a01b0382165f9081526007602052604090205460ff16610a685760405162461bcd60e51b815260206004820152600e60248201526d139bdd081c9959da5cdd195c995960921b60448201526064016103a6565b6001600160a01b0382165f90815260076020526040902054610100900460ff1615610ac85760405162461bcd60e51b815260206004820152601060248201526f159bdd195c881a5cc8109b1bd8dad95960821b60448201526064016103a6565b6001600160a01b0382165f9081526007602052604090205462010000900460ff1615610b265760405162461bcd60e51b815260206004820152600d60248201526c105b1c9958591e481d9bdd1959609a1b60448201526064016103a6565b6001600160a01b0382165f90815260076020526040902060010154610b855760405162461bcd60e51b8152602060048201526015602482015274139bc81d9bdd1a5b99c81d1bdad95b9cc81b19599d605a1b60448201526064016103a6565b6001600160a01b0382165f908152600760205260408120805462ff00001916620100001781556001908101805491929091610bc1908490611724565b90915550505f818152600660205260408120600201805491610be283611557565b909155505060018054905f610bf683611557565b9091555050604080516001600160a01b0384168152602081018390527fd0e6c39f2e086dc49f1524b47725526a56945cd1ff661f37976f1725a1e56986910160405180910390a15050565b5f546001600160a01b03163314610c6a5760405162461bcd60e51b81526004016103a6906114f3565b5f600181905560038190556004805460ff191690556040517fc475c26aa25ed8e85a7faa790e5f63b5d7ee1025f12821f4c9bfddd36ab4d1129190a1565b60066020525f908152604090208054600182018054919291610cc99061159d565b80601f0160208091040260200160405190810160405280929190818152602001828054610cf59061159d565b8015610d405780601f10610d1757610100808354040283529160200191610d40565b820191905f5260205f20905b815481529060010190602001808311610d2357829003601f168201915b50505050600283015460039093015491929160ff16905084565b5f546001600160a01b03163314610d835760405162461bcd60e51b81526004016103a6906114f3565b6001600160a01b0381165f9081526007602052604090205460ff16610dba5760405162461bcd60e51b81526004016103a69061156f565b6001600160a01b0381165f81815260076020908152604091829020805461ff001916905590519182527fab959fbc13b062160881e60ff29606e624845db6730111c3f5c3e567c8dc9e4c9101610451565b5f546001600160a01b03163314610e345760405162461bcd60e51b81526004016103a6906114f3565b5f5b8151811015610fac575f60075f848481518110610e5557610e5561173d565b60200260200101516001600160a01b03166001600160a01b031681526020019081526020015f206001015411158015610ecb575060075f838381518110610e9e57610e9e61173d565b6020908102919091018101516001600160a01b031682528101919091526040015f2054610100900460ff16155b8015610f15575060075f838381518110610ee757610ee761173d565b6020908102919091018101516001600160a01b031682528101919091526040015f205462010000900460ff16155b15610fa457610f3c828281518110610f2f57610f2f61173d565b6020026020010151610fb0565b7f16b0da2ffcb90c6723317bd637d9aad7f04711f42bbe0ac0918ebe10f1f9001c828281518110610f6f57610f6f61173d565b60200260200101516001604051610f9b9291906001600160a01b03929092168252602082015260400190565b60405180910390a15b600101610e36565b5050565b5f546001600160a01b03163314610fd95760405162461bcd60e51b81526004016103a6906114f3565b6001600160a01b0381165f9081526007602052604090205460ff166110105760405162461bcd60e51b81526004016103a69061156f565b6001600160a01b0381165f908152600760205260408120600190810180549192909161103d908490611751565b9091555050604080516001600160a01b0383168152600160208201527f3f2c9d57c068687834f0de942a9babb9e5acab57d516d3480a3c16ee165a42739101610451565b60058181548110611090575f80fd5b5f918252602090912001546001600160a01b0316905081565b5f546001600160a01b031633146110d25760405162461bcd60e51b81526004016103a6906114f3565b60015b600354811161111b575f8181526006602052604090206003015460ff1615611109575f818152600660205260408120600201555b8061111381611557565b9150506110d5565b505f5b6005548110156112595760075f6005838154811061113e5761113e61173d565b5f9182526020808320909101546001600160a01b0316835282019290925260400190205460ff1615611251575f60075f600584815481106111815761118161173d565b5f9182526020808320909101546001600160a01b03168352820192909252604001812080549215156101000261ff001990931692909217909155600580546007918391859081106111d4576111d461173d565b5f9182526020808320909101546001600160a01b0316835282019290925260400181208054921515620100000262ff00001990931692909217909155600580546007918391859081106112295761122961173d565b5f9182526020808320909101546001600160a01b031683528201929092526040019020600101555b60010161111e565b505f60018190556004805460ff191690556040517f8d1085cd9eceaab0b77fd20c66dea55df08e5ef2d52859c2cb4a1e16ba9476c09190a1565b5f602082840312156112a3575f5ffd5b5035919050565b80356001600160a01b03811681146112c0575f5ffd5b919050565b5f602082840312156112d5575f5ffd5b6112de826112aa565b9392505050565b634e487b7160e01b5f52604160045260245ffd5b604051601f8201601f1916810167ffffffffffffffff81118282101715611322576113226112e5565b604052919050565b5f6020828403121561133a575f5ffd5b813567ffffffffffffffff811115611350575f5ffd5b8201601f81018413611360575f5ffd5b803567ffffffffffffffff81111561137a5761137a6112e5565b61138d601f8201601f19166020016112f9565b8181528560208385010111156113a1575f5ffd5b816020840160208301375f91810160200191909152949350505050565b5f5f604083850312156113cf575f5ffd5b6113d8836112aa565b946020939093013593505050565b5f81518084528060208401602086015e5f602082860101526020601f19601f83011685010191505092915050565b848152608060208201525f61142c60808301866113e6565b60408301949094525090151560609091015292915050565b5f60208284031215611454575f5ffd5b813567ffffffffffffffff81111561146a575f5ffd5b8201601f8101841361147a575f5ffd5b803567ffffffffffffffff811115611494576114946112e5565b8060051b6114a4602082016112f9565b918252602081840181019290810190878411156114bf575f5ffd5b6020850194505b838510156114e8576114d7856112aa565b8252602094850194909101906114c6565b979650505050505050565b60208082526030908201527f4f6e6c7920656c656374696f6e20636f6d6d697373696f6e2063616e2070657260408201526f3337b936903a3434b99030b1ba34b7b760811b606082015260800190565b634e487b7160e01b5f52601160045260245ffd5b5f6001820161156857611568611543565b5060010190565b602080825260149082015273159bdd195c881b9bdd081c9959da5cdd195c995960621b604082015260600190565b600181811c908216806115b157607f821691505b6020821081036115cf57634e487b7160e01b5f52602260045260245ffd5b50919050565b838152606060208201525f6115ed60608301856113e6565b9050826040830152949350505050565b601f82111561164457805f5260205f20601f840160051c810160208510156116225750805b601f840160051c820191505b81811015611641575f815560010161162e565b50505b505050565b815167ffffffffffffffff811115611663576116636112e5565b61167781611671845461159d565b846115fd565b6020601f8211600181146116a9575f83156116925750848201515b5f19600385901b1c1916600184901b178455611641565b5f84815260208120601f198516915b828110156116d857878501518255602094850194600190920191016116b8565b50848210156116f557868401515f19600387901b60f8161c191681555b50505050600190811b01905550565b828152604060208201525f61171c60408301846113e6565b949350505050565b8181038181111561173757611737611543565b92915050565b634e487b7160e01b5f52603260045260245ffd5b808201808211156117375761173761154356fea264697066735822122019af0188967f4341fbfbcba93260f91e241cacc988f1fc15f9610b451e7f84b764736f6c634300081c0033","linkReferences":{}},"methodIdentifiers":{"addParty(string)":"5df3e271","blockVoter(address)":"451bf277","distributeTokens(address[])":"88951352","electionCommission()":"aab46b7f","electionEnded()":"c94ca9e3","endElection()":"59f78468","getPartyVotes(uint256)":"2acf6304","getVoterStatus(address)":"78e3ef20","mintTokens(address)":"bcfaa79d","parties(uint256)":"70651a18","registerVoter(address)":"38db6dd3","removeParty(uint256)":"1c99d341","resetElection()":"e8f30523","startElection()":"62d73eb8","totalParties()":"01d3be05","totalVoters()":"5f5300ff","totalVotes()":"0d15fd77","unblockVoter(address)":"81bf809d","vote(address,uint256)":"5f74bbde","voterAddresses(uint256)":"dd0e2373","voters(address)":"a3ec138d"},"id":15}