{"abi":[{"type":"constructor","inputs":[],"stateMutability":"nonpayable"},{"type":"function","name":"addParty","inputs":[{"name":"_partyId","type":"uint256","internalType":"uint256"},{"name":"_name","type":"string","internalType":"string"}],"outputs":[],"stateMutability":"nonpayable"},{"type":"function","name":"blockVoter","inputs":[{"name":"_voter","type":"address","internalType":"address"}],"outputs":[],"stateMutability":"nonpayable"},{"type":"function","name":"distributeTokens","inputs":[],"outputs":[],"stateMutability":"nonpayable"},{"type":"function","name":"electionCommission","inputs":[],"outputs":[{"name":"","type":"address","internalType":"address"}],"stateMutability":"view"},{"type":"function","name":"electionDeadline","inputs":[],"outputs":[{"name":"","type":"uint256","internalType":"uint256"}],"stateMutability":"view"},{"type":"function","name":"electionEnded","inputs":[],"outputs":[{"name":"","type":"bool","internalType":"bool"}],"stateMutability":"view"},{"type":"function","name":"endElection","inputs":[],"outputs":[],"stateMutability":"nonpayable"},{"type":"function","name":"getPartyStatus","inputs":[{"name":"_partyId","type":"uint256","internalType":"uint256"}],"outputs":[{"name":"","type":"uint256","internalType":"uint256"},{"name":"","type":"string","internalType":"string"},{"name":"","type":"uint256","internalType":"uint256"},{"name":"","type":"bool","internalType":"bool"}],"stateMutability":"view"},{"type":"function","name":"getTotalParties","inputs":[],"outputs":[{"name":"","type":"uint256","internalType":"uint256"}],"stateMutability":"view"},{"type":"function","name":"getTotalVoters","inputs":[],"outputs":[{"name":"","type":"uint256","internalType":"uint256"}],"stateMutability":"view"},{"type":"function","name":"getTotalVotes","inputs":[],"outputs":[{"name":"","type":"uint256","internalType":"uint256"}],"stateMutability":"view"},{"type":"function","name":"getVoterAddresses","inputs":[],"outputs":[{"name":"","type":"address[]","internalType":"address[]"}],"stateMutability":"view"},{"type":"function","name":"getVoterStatus","inputs":[{"name":"_voter","type":"address","internalType":"address"}],"outputs":[{"name":"","type":"bool","internalType":"bool"},{"name":"","type":"bool","internalType":"bool"},{"name":"","type":"bool","internalType":"bool"},{"name":"","type":"uint256","internalType":"uint256"}],"stateMutability":"view"},{"type":"function","name":"mintTokens","inputs":[{"name":"_voter","type":"address","internalType":"address"}],"outputs":[],"stateMutability":"nonpayable"},{"type":"function","name":"parties","inputs":[{"name":"","type":"uint256","internalType":"uint256"}],"outputs":[{"name":"id","type":"uint256","internalType":"uint256"},{"name":"name","type":"string","internalType":"string"},{"name":"voteCount","type":"uint256","internalType":"uint256"},{"name":"exists","type":"bool","internalType":"bool"}],"stateMutability":"view"},{"type":"function","name":"partyIds","inputs":[{"name":"","type":"uint256","internalType":"uint256"}],"outputs":[{"name":"","type":"uint256","internalType":"uint256"}],"stateMutability":"view"},{"type":"function","name":"registerVoter","inputs":[{"name":"_voter","type":"address","internalType":"address"}],"outputs":[],"stateMutability":"nonpayable"},{"type":"function","name":"removeParty","inputs":[{"name":"_partyId","type":"uint256","internalType":"uint256"}],"outputs":[],"stateMutability":"nonpayable"},{"type":"function","name":"resetElection","inputs":[],"outputs":[],"stateMutability":"nonpayable"},{"type":"function","name":"results","inputs":[],"outputs":[{"name":"","type":"uint256","internalType":"uint256"},{"name":"","type":"string","internalType":"string"},{"name":"","type":"uint256","internalType":"uint256"}],"stateMutability":"view"},{"type":"function","name":"startElection","inputs":[{"name":"_duration","type":"uint256","internalType":"uint256"}],"outputs":[],"stateMutability":"nonpayable"},{"type":"function","name":"totalVoters","inputs":[],"outputs":[{"name":"","type":"uint256","internalType":"uint256"}],"stateMutability":"view"},{"type":"function","name":"totalVotes","inputs":[],"outputs":[{"name":"","type":"uint256","internalType":"uint256"}],"stateMutability":"view"},{"type":"function","name":"unblockVoter","inputs":[{"name":"_voter","type":"address","internalType":"address"}],"outputs":[],"stateMutability":"nonpayable"},{"type":"function","name":"vote","inputs":[{"name":"_partyId","type":"uint256","internalType":"uint256"}],"outputs":[],"stateMutability":"nonpayable"},{"type":"function","name":"voterAddresses","inputs":[{"name":"","type":"uint256","internalType":"uint256"}],"outputs":[{"name":"","type":"address","internalType":"address"}],"stateMutability":"view"},{"type":"function","name":"voters","inputs":[{"name":"","type":"address","internalType":"address"}],"outputs":[{"name":"isRegistered","type":"bool","internalType":"bool"},{"name":"isBlocked","type":"bool","internalType":"bool"},{"name":"hasVoted","type":"bool","internalType":"bool"},{"name":"allocatedTokens","type":"uint256","internalType":"uint256"}],"stateMutability":"view"},{"type":"event","name":"VoteCast","inputs":[{"name":"voter","type":"address","indexed":true,"internalType":"address"},{"name":"partyId","type":"uint256","indexed":true,"internalType":"uint256"}],"anonymous":false}],"bytecode":{"object":"0x6080604052348015600e575f5ffd5b505f80546001600160a01b03191633178155600181905560028190556004805460ff1916905560035561190e806100445f395ff3fe608060405234801561000f575f5ffd5b50600436106101a1575f3560e01c80637fa23093116100f3578063bcfaa79d11610093578063d3d8b9a21161006e578063d3d8b9a2146103b3578063dd0e2373146103bc578063e8f30523146103cf578063f5ea0106146103d7575f5ffd5b8063bcfaa79d1461037b578063c236bf9b1461038e578063c94ca9e314610396575f5ffd5b80639ab1b484116100ce5780639ab1b484146102f3578063a3ec138d146102fb578063a48bdb7c1461033a578063aab46b7f14610351575f5ffd5b80637fa23093146102c557806381bf809d146102d85780639a0e7d66146102eb575f5ffd5b80634f6c90cf1161015e5780636d32dc4b116101395780636d32dc4b1461024c57806370651a181461025f57806378e3ef2014610282578063793cf218146102bd575f5ffd5b80634f6c90cf1461022857806359f784681461023b5780635f5300ff14610243575f5ffd5b80630121b93f146101a55780630a16e30b146101ba5780630d15fd77146101d85780631c99d341146101ef57806338db6dd314610202578063451bf27714610215575b5f5ffd5b6101b86101b33660046114b5565b6103ea565b005b6101c26106a3565b6040516101cf91906114cc565b60405180910390f35b6101e160015481565b6040519081526020016101cf565b6101b86101fd3660046114b5565b610703565b6101b8610210366004611517565b610860565b6101b8610223366004611517565b6109b4565b6101e16102363660046114b5565b610a39565b6101b8610a58565b6101e160025481565b6101b861025a3660046114b5565b610ad8565b61027261026d3660046114b5565b610bd7565b6040516101cf9493929190611572565b610295610290366004611517565b610c89565b60408051941515855292151560208501529015159183019190915260608201526080016101cf565b6002546101e1565b6102726102d33660046114b5565b610d2c565b6101b86102e6366004611517565b610e7a565b6001546101e1565b6101b8610efb565b610295610309366004611517565b60086020525f90815260409020805460019091015460ff808316926101008104821692620100009091049091169084565b610342610ff1565b6040516101cf939291906115a2565b5f54610363906001600160a01b031681565b6040516001600160a01b0390911681526020016101cf565b6101b8610389366004611517565b611155565b6006546101e1565b6004546103a39060ff1681565b60405190151581526020016101cf565b6101e160035481565b6103636103ca3660046114b5565b6111d3565b6101b86111fb565b6101b86103e53660046115de565b611348565b60045460ff16156104375760405162461bcd60e51b8152602060048201526012602482015271115b1958dd1a5bdb881a185cc8195b99195960721b60448201526064015b60405180910390fd5b600354421061047b5760405162461bcd60e51b815260206004820152601060248201526f22b632b1ba34b7b71034b99037bb32b960811b604482015260640161042e565b5f8181526007602052604090206003015460ff166104cb5760405162461bcd60e51b815260206004820152600d60248201526c496e76616c696420706172747960981b604482015260640161042e565b335f9081526008602052604090205460ff1661051a5760405162461bcd60e51b815260206004820152600e60248201526d139bdd081c9959da5cdd195c995960921b604482015260640161042e565b335f90815260086020526040902054610100900460ff16156105715760405162461bcd60e51b815260206004820152601060248201526f159bdd195c881a5cc8109b1bd8dad95960821b604482015260640161042e565b335f9081526008602052604090205462010000900460ff16156105c65760405162461bcd60e51b815260206004820152600d60248201526c105b1c9958591e481d9bdd1959609a1b604482015260640161042e565b335f9081526008602052604090206001015461061c5760405162461bcd60e51b8152602060048201526015602482015274139bc81d9bdd1a5b99c81d1bdad95b9cc81b19599d605a1b604482015260640161042e565b335f908152600860209081526040808320805462ff00001916620100001781556001018390558383526007909152812060020180549161065b836116af565b909155505060018054905f61066f836116af565b9091555050604051819033907fa36cc2bebb74db33e9f88110a07ef56e1b31b24b4c4f51b54b1664266e29f45b905f90a350565b606060058054806020026020016040519081016040528092919081815260200182805480156106f957602002820191905f5260205f20905b81546001600160a01b031681526001909101906020018083116106db575b5050505050905090565b5f546001600160a01b0316331461072c5760405162461bcd60e51b815260040161042e906116c7565b5f8181526007602052604090206003015460ff166107845760405162461bcd60e51b81526020600482015260156024820152742830b93a3c903237b2b9903737ba1032bc34b9ba1760591b604482015260640161042e565b5f818152600760205260408120818155906107a2600183018261146b565b505f600282018190556003909101805460ff191690555b60065481101561085c5781600682815481106107d7576107d7611717565b905f5260205f2001540361085457600680546107f59060019061172b565b8154811061080557610805611717565b905f5260205f2001546006828154811061082157610821611717565b5f91825260209091200155600680548061083d5761083d611744565b600190038181905f5260205f20015f905590555050565b6001016107b9565b5050565b5f546001600160a01b031633146108895760405162461bcd60e51b815260040161042e906116c7565b6001600160a01b0381165f9081526008602052604090205460ff16156108e65760405162461bcd60e51b8152602060048201526012602482015271105b1c9958591e481c9959da5cdd195c995960721b604482015260640161042e565b6040805160808101825260018082525f6020808401828152848601838152606086018581526001600160a01b038916808652600890945296842095518654925191511515620100000262ff0000199215156101000261ff00199215159290921661ffff1990941693909317171617845593519282019290925560058054918201815582527f036b6384b5eca791c62761152d0c79bb0604c104a5fb6f4eb0703f3154bb3db00180546001600160a01b03191690921790915560028054916109ac836116af565b919050555050565b5f546001600160a01b031633146109dd5760405162461bcd60e51b815260040161042e906116c7565b6001600160a01b0381165f9081526008602052604090205460ff16610a145760405162461bcd60e51b815260040161042e90611758565b6001600160a01b03165f908152600860205260409020805461ff001916610100179055565b60068181548110610a48575f80fd5b5f91825260209091200154905081565b5f546001600160a01b03163314610a815760405162461bcd60e51b815260040161042e906116c7565b60045460ff1615610ac95760405162461bcd60e51b8152602060048201526012602482015271115b1958dd1a5bdb881a185cc8195b99195960721b604482015260640161042e565b6004805460ff19166001179055565b5f546001600160a01b03163314610b015760405162461bcd60e51b815260040161042e906116c7565b60045460ff16610b535760405162461bcd60e51b815260206004820152601d60248201527f416e20656c656374696f6e20697320616c726561647920616374697665000000604482015260640161042e565b610b5d8142611786565b6003555f60018190555b600654811015610bc9575f60068281548110610b8557610b85611717565b5f918252602080832090910154808352600790915260409091206003015490915060ff1615610bc0575f818152600760205260408120600201555b50600101610b67565b50506004805460ff19169055565b60076020525f908152604090208054600182018054919291610bf890611799565b80601f0160208091040260200160405190810160405280929190818152602001828054610c2490611799565b8015610c6f5780601f10610c4657610100808354040283529160200191610c6f565b820191905f5260205f20905b815481529060010190602001808311610c5257829003601f168201915b50505050600283015460039093015491929160ff16905084565b6001600160a01b0381165f9081526008602052604081205481908190819060ff16610cc65760405162461bcd60e51b815260040161042e90611758565b505050506001600160a01b03165f908152600860209081526040918290208251608081018452815460ff80821615158084526101008304821615159584018690526201000090920416151594820185905260019092015460609091018190529093919291565b5f818152600760205260408120600301546060908290819060ff16610d865760405162461bcd60e51b815260206004820152601060248201526f5061727479206e6f742065786973747360801b604482015260640161042e565b5f60075f8781526020019081526020015f206040518060800160405290815f8201548152602001600182018054610dbc90611799565b80601f0160208091040260200160405190810160405280929190818152602001828054610de890611799565b8015610e335780601f10610e0a57610100808354040283529160200191610e33565b820191905f5260205f20905b815481529060010190602001808311610e1657829003601f168201915b5050509183525050600282015460208083019190915260039092015460ff161515604091820152825191830151908301516060909301519199909850919650945092505050565b5f546001600160a01b03163314610ea35760405162461bcd60e51b815260040161042e906116c7565b6001600160a01b0381165f9081526008602052604090205460ff16610eda5760405162461bcd60e51b815260040161042e90611758565b6001600160a01b03165f908152600860205260409020805461ff0019169055565b5f546001600160a01b03163314610f245760405162461bcd60e51b815260040161042e906116c7565b5f5b600554811015610fee575f60058281548110610f4457610f44611717565b5f9182526020808320909101546001600160a01b03168083526008909152604090912060010154909150158015610f9857506001600160a01b0381165f90815260086020526040902054610100900460ff16155b8015610fc257506001600160a01b0381165f9081526008602052604090205462010000900460ff16155b15610fe5576001600160a01b0381165f9081526008602052604090206001908101555b50600101610f26565b50565b5f805460609082906001600160a01b031633146110205760405162461bcd60e51b815260040161042e906116c7565b60408051602081019091525f8082529081805b600654811015611148575f6006828154811061105157611051611717565b5f918252602080832090910154808352600790915260409091206003015490915060ff16801561109057505f8181526007602052604090206002015483105b1561113f575f8181526007602052604090206002810154815460019092018054929750909450906110c090611799565b80601f01602080910402602001604051908101604052809291908181526020018280546110ec90611799565b80156111375780601f1061110e57610100808354040283529160200191611137565b820191905f5260205f20905b81548152906001019060200180831161111a57829003601f168201915b505050505093505b50600101611033565b5091945092509050909192565b5f546001600160a01b0316331461117e5760405162461bcd60e51b815260040161042e906116c7565b6001600160a01b0381165f9081526008602052604090205460ff166111b55760405162461bcd60e51b815260040161042e90611758565b6001600160a01b03165f908152600860205260409020600190810155565b600581815481106111e2575f80fd5b5f918252602090912001546001600160a01b0316905081565b5f546001600160a01b031633146112245760405162461bcd60e51b815260040161042e906116c7565b5f5b600654811015611288575f6006828154811061124457611244611717565b5f918252602080832090910154808352600790915260409091206003015490915060ff161561127f575f818152600760205260408120600201555b50600101611226565b505f5b600554811015611337575f600582815481106112a9576112a9611717565b5f918252602080832090910154604080516080810182526001808252818501868152828401878152606084018881526001600160a01b03909616885260089096529290952090518154925194511515620100000262ff0000199515156101000261ff00199215159290921661ffff19909416939093171793909316178255519082015591909101905061128b565b505f6001556004805460ff19169055565b5f546001600160a01b031633146113715760405162461bcd60e51b815260040161042e906116c7565b5f8281526007602052604090206003015460ff16156113c95760405162461bcd60e51b8152602060048201526014602482015273506172747920616c72656164792065786973747360601b604482015260640161042e565b6040805160808101825283815260208082018481525f83850181905260016060850181905287825260079093529390932082518155925191929190820190611411908261181d565b50604082015160028201556060909101516003909101805460ff191691151591909117905550600680546001810182555f919091527ff652222313e28459528d920b65115c16c04f3efc82aaedc97be59f3f377c0d3f0155565b50805461147790611799565b5f825580601f10611486575050565b601f0160209004905f5260205f2090810190610fee91905b808211156114b1575f815560010161149e565b5090565b5f602082840312156114c5575f5ffd5b5035919050565b602080825282518282018190525f918401906040840190835b8181101561150c5783516001600160a01b03168352602093840193909201916001016114e5565b509095945050505050565b5f60208284031215611527575f5ffd5b81356001600160a01b038116811461153d575f5ffd5b9392505050565b5f81518084528060208401602086015e5f602082860101526020601f19601f83011685010191505092915050565b848152608060208201525f61158a6080830186611544565b60408301949094525090151560609091015292915050565b838152606060208201525f6115ba6060830185611544565b9050826040830152949350505050565b634e487b7160e01b5f52604160045260245ffd5b5f5f604083850312156115ef575f5ffd5b82359150602083013567ffffffffffffffff81111561160c575f5ffd5b8301601f8101851361161c575f5ffd5b803567ffffffffffffffff811115611636576116366115ca565b604051601f8201601f19908116603f0116810167ffffffffffffffff81118282101715611665576116656115ca565b60405281815282820160200187101561167c575f5ffd5b816020840160208301375f602083830101528093505050509250929050565b634e487b7160e01b5f52601160045260245ffd5b5f600182016116c0576116c061169b565b5060010190565b60208082526030908201527f4f6e6c7920656c656374696f6e20636f6d6d697373696f6e2063616e2070657260408201526f3337b936903a3434b99030b1ba34b7b760811b606082015260800190565b634e487b7160e01b5f52603260045260245ffd5b8181038181111561173e5761173e61169b565b92915050565b634e487b7160e01b5f52603160045260245ffd5b602080825260149082015273159bdd195c881b9bdd081c9959da5cdd195c995960621b604082015260600190565b8082018082111561173e5761173e61169b565b600181811c908216806117ad57607f821691505b6020821081036117cb57634e487b7160e01b5f52602260045260245ffd5b50919050565b601f82111561181857805f5260205f20601f840160051c810160208510156117f65750805b601f840160051c820191505b81811015611815575f8155600101611802565b50505b505050565b815167ffffffffffffffff811115611837576118376115ca565b61184b816118458454611799565b846117d1565b6020601f82116001811461187d575f83156118665750848201515b5f19600385901b1c1916600184901b178455611815565b5f84815260208120601f198516915b828110156118ac578785015182556020948501946001909201910161188c565b50848210156118c957868401515f19600387901b60f8161c191681555b50505050600190811b0190555056fea2646970667358221220c9683370ef75a683f9bc21a284a76fa4606e78ecdee5729774a600022c7af57464736f6c634300081c0033","linkReferences":{}},"methodIdentifiers":{"addParty(uint256,string)":"f5ea0106","blockVoter(address)":"451bf277","distributeTokens()":"9ab1b484","electionCommission()":"aab46b7f","electionDeadline()":"d3d8b9a2","electionEnded()":"c94ca9e3","endElection()":"59f78468","getPartyStatus(uint256)":"7fa23093","getTotalParties()":"c236bf9b","getTotalVoters()":"793cf218","getTotalVotes()":"9a0e7d66","getVoterAddresses()":"0a16e30b","getVoterStatus(address)":"78e3ef20","mintTokens(address)":"bcfaa79d","parties(uint256)":"70651a18","partyIds(uint256)":"4f6c90cf","registerVoter(address)":"38db6dd3","removeParty(uint256)":"1c99d341","resetElection()":"e8f30523","results()":"a48bdb7c","startElection(uint256)":"6d32dc4b","totalVoters()":"5f5300ff","totalVotes()":"0d15fd77","unblockVoter(address)":"81bf809d","vote(uint256)":"0121b93f","voterAddresses(uint256)":"dd0e2373","voters(address)":"a3ec138d"},"id":0}